{
  "_format": "hh-sol-artifact-1",
  "contractName": "VendorV2",
  "sourceName": "contracts/VendorV2.sol",
  "abi": [
    {
      "inputs": [],
      "name": "InvalidInitialization",
      "type": "error"
    },
    {
      "inputs": [],
      "name": "NotInitializing",
      "type": "error"
    },
    {
      "anonymous": false,
      "inputs": [
        {
          "indexed": false,
          "internalType": "uint64",
          "name": "version",
          "type": "uint64"
        }
      ],
      "name": "Initialized",
      "type": "event"
    },
    {
      "inputs": [],
      "name": "checkVersion",
      "outputs": [
        {
          "internalType": "string",
          "name": "",
          "type": "string"
        }
      ],
      "stateMutability": "view",
      "type": "function"
    },
    {
      "inputs": [],
      "name": "getMyAddress",
      "outputs": [
        {
          "internalType": "address",
          "name": "",
          "type": "address"
        }
      ],
      "stateMutability": "view",
      "type": "function"
    },
    {
      "inputs": [],
      "name": "getOwner",
      "outputs": [
        {
          "internalType": "address",
          "name": "",
          "type": "address"
        }
      ],
      "stateMutability": "view",
      "type": "function"
    },
    {
      "inputs": [
        {
          "internalType": "uint256",
          "name": "_numSodas",
          "type": "uint256"
        },
        {
          "internalType": "uint256",
          "name": "_numChips",
          "type": "uint256"
        }
      ],
      "name": "initialize",
      "outputs": [],
      "stateMutability": "nonpayable",
      "type": "function"
    },
    {
      "inputs": [],
      "name": "numChips",
      "outputs": [
        {
          "internalType": "uint256",
          "name": "",
          "type": "uint256"
        }
      ],
      "stateMutability": "view",
      "type": "function"
    },
    {
      "inputs": [],
      "name": "numSodas",
      "outputs": [
        {
          "internalType": "uint256",
          "name": "",
          "type": "uint256"
        }
      ],
      "stateMutability": "view",
      "type": "function"
    },
    {
      "inputs": [],
      "name": "owner",
      "outputs": [
        {
          "internalType": "address",
          "name": "",
          "type": "address"
        }
      ],
      "stateMutability": "view",
      "type": "function"
    },
    {
      "inputs": [],
      "name": "purchaseChips",
      "outputs": [],
      "stateMutability": "payable",
      "type": "function"
    },
    {
      "inputs": [],
      "name": "purchaseSoda",
      "outputs": [],
      "stateMutability": "payable",
      "type": "function"
    }
  ],
  "bytecode": "0x608060405234801561001057600080fd5b50610933806100206000396000f3fe6080604052600436106100865760003560e01c80637454ab6d116100595780637454ab6d14610116578063893d20e8146101205780638da5cb5b1461014b5780639a16629914610176578063e4a30116146101a157610086565b80631b0e84c71461008b57806363b18329146100b65780636453cabe146100e15780636d0d9f12146100eb575b600080fd5b34801561009757600080fd5b506100a06101ca565b6040516100ad9190610599565b60405180910390f35b3480156100c257600080fd5b506100cb6101d0565b6040516100d89190610599565b60405180910390f35b6100e96101d6565b005b3480156100f757600080fd5b506101006101ff565b60405161010d9190610644565b60405180910390f35b61011e6102cc565b005b34801561012c57600080fd5b5061013561032a565b60405161014291906106a7565b60405180910390f35b34801561015757600080fd5b50610160610354565b60405161016d91906106a7565b60405180910390f35b34801561018257600080fd5b5061018b61037a565b60405161019891906106a7565b60405180910390f35b3480156101ad57600080fd5b506101c860048036038101906101c391906106f3565b610382565b005b60025481565b60005481565b6103e83410156101e557600080fd5b600260008154809291906101f890610762565b9190505550565b6060600160009054906101000a900473ffffffffffffffffffffffffffffffffffffffff1673ffffffffffffffffffffffffffffffffffffffff163373ffffffffffffffffffffffffffffffffffffffff1614610291576040517f08c379a0000000000000000000000000000000000000000000000000000000008152600401610288906107d7565b60405180910390fd5b6040518060400160405280600281526020017f7631000000000000000000000000000000000000000000000000000000000000815250905090565b6103e8341015610311576040517f08c379a000000000000000000000000000000000000000000000000000000000815260040161030890610869565b60405180910390fd5b60008081548092919061032390610762565b9190505550565b6000600160009054906101000a900473ffffffffffffffffffffffffffffffffffffffff16905090565b600160009054906101000a900473ffffffffffffffffffffffffffffffffffffffff1681565b600033905090565b600061038c610558565b905060008160000160089054906101000a900460ff1615905060008260000160009054906101000a900467ffffffffffffffff1690506000808267ffffffffffffffff161480156103da5750825b9050600060018367ffffffffffffffff1614801561040f575060003073ffffffffffffffffffffffffffffffffffffffff163b145b90508115801561041d575080155b15610454576040517ff92ee8a900000000000000000000000000000000000000000000000000000000815260040160405180910390fd5b60018560000160006101000a81548167ffffffffffffffff021916908367ffffffffffffffff16021790555083156104a45760018560000160086101000a81548160ff0219169083151502179055505b8660008190555033600160006101000a81548173ffffffffffffffffffffffffffffffffffffffff021916908373ffffffffffffffffffffffffffffffffffffffff16021790555085600281905550831561054f5760008560000160086101000a81548160ff0219169083151502179055507fc7f505b2f371ae2175ee4913f4499e1f2633a7b5936321eed1cdaeb6115181d2600160405161054691906108e2565b60405180910390a15b50505050505050565b60007ff0c57e16840df040f15088dc2f81fe391c3923bec73e23a9662efc9c229c6a00905090565b6000819050919050565b61059381610580565b82525050565b60006020820190506105ae600083018461058a565b92915050565b600081519050919050565b600082825260208201905092915050565b60005b838110156105ee5780820151818401526020810190506105d3565b60008484015250505050565b6000601f19601f8301169050919050565b6000610616826105b4565b61062081856105bf565b93506106308185602086016105d0565b610639816105fa565b840191505092915050565b6000602082019050818103600083015261065e818461060b565b905092915050565b600073ffffffffffffffffffffffffffffffffffffffff82169050919050565b600061069182610666565b9050919050565b6106a181610686565b82525050565b60006020820190506106bc6000830184610698565b92915050565b600080fd5b6106d081610580565b81146106db57600080fd5b50565b6000813590506106ed816106c7565b92915050565b6000806040838503121561070a576107096106c2565b5b6000610718858286016106de565b9250506020610729858286016106de565b9150509250929050565b7f4e487b7100000000000000000000000000000000000000000000000000000000600052601160045260246000fd5b600061076d82610580565b9150600082036107805761077f610733565b5b600182039050919050565b7f6f6e6c794f776e657243616c6c61626c65000000000000000000000000000000600082015250565b60006107c16011836105bf565b91506107cc8261078b565b602082019050919050565b600060208201905081810360008301526107f0816107b4565b9050919050565b7f596f75206d7573742070617920313030302077656920666f72206120736f646160008201527f2100000000000000000000000000000000000000000000000000000000000000602082015250565b60006108536021836105bf565b915061085e826107f7565b604082019050919050565b6000602082019050818103600083015261088281610846565b9050919050565b6000819050919050565b600067ffffffffffffffff82169050919050565b6000819050919050565b60006108cc6108c76108c284610889565b6108a7565b610893565b9050919050565b6108dc816108b1565b82525050565b60006020820190506108f760008301846108d3565b9291505056fea2646970667358221220fe2c8746367c2419487e5899645593fb84e5a6cd24dae78a60279966f9d7987b64736f6c63430008180033",
  "linkReferences": {},
  "deployedLinkReferences": {}
}