{
  "_format": "hh-sol-artifact-1",
  "contractName": "VendorV1",
  "sourceName": "contracts/VendorV1.sol",
  "abi": [
    {
      "inputs": [],
      "name": "InvalidInitialization",
      "type": "error"
    },
    {
      "inputs": [],
      "name": "NotInitializing",
      "type": "error"
    },
    {
      "anonymous": false,
      "inputs": [
        {
          "indexed": false,
          "internalType": "uint64",
          "name": "version",
          "type": "uint64"
        }
      ],
      "name": "Initialized",
      "type": "event"
    },
    {
      "inputs": [],
      "name": "checkVersion",
      "outputs": [
        {
          "internalType": "string",
          "name": "",
          "type": "string"
        }
      ],
      "stateMutability": "view",
      "type": "function"
    },
    {
      "inputs": [],
      "name": "getMyAddress",
      "outputs": [
        {
          "internalType": "address",
          "name": "",
          "type": "address"
        }
      ],
      "stateMutability": "view",
      "type": "function"
    },
    {
      "inputs": [],
      "name": "getOwner",
      "outputs": [
        {
          "internalType": "address",
          "name": "",
          "type": "address"
        }
      ],
      "stateMutability": "view",
      "type": "function"
    },
    {
      "inputs": [
        {
          "internalType": "uint256",
          "name": "_numSodas",
          "type": "uint256"
        }
      ],
      "name": "initialize",
      "outputs": [],
      "stateMutability": "nonpayable",
      "type": "function"
    },
    {
      "inputs": [],
      "name": "numSodas",
      "outputs": [
        {
          "internalType": "uint256",
          "name": "",
          "type": "uint256"
        }
      ],
      "stateMutability": "view",
      "type": "function"
    },
    {
      "inputs": [],
      "name": "owner",
      "outputs": [
        {
          "internalType": "address",
          "name": "",
          "type": "address"
        }
      ],
      "stateMutability": "view",
      "type": "function"
    },
    {
      "inputs": [],
      "name": "purchaseSoda",
      "outputs": [],
      "stateMutability": "payable",
      "type": "function"
    }
  ],
  "bytecode": "0x608060405234801561001057600080fd5b5061089e806100206000396000f3fe6080604052600436106100705760003560e01c8063893d20e81161004e578063893d20e8146100d55780638da5cb5b146101005780639a1662991461012b578063fe4b84df1461015657610070565b806363b18329146100755780636d0d9f12146100a05780637454ab6d146100cb575b600080fd5b34801561008157600080fd5b5061008a61017f565b6040516100979190610517565b60405180910390f35b3480156100ac57600080fd5b506100b5610185565b6040516100c291906105c2565b60405180910390f35b6100d3610252565b005b3480156100e157600080fd5b506100ea6102b0565b6040516100f79190610625565b60405180910390f35b34801561010c57600080fd5b506101156102da565b6040516101229190610625565b60405180910390f35b34801561013757600080fd5b50610140610300565b60405161014d9190610625565b60405180910390f35b34801561016257600080fd5b5061017d60048036038101906101789190610671565b610308565b005b60005481565b6060600160009054906101000a900473ffffffffffffffffffffffffffffffffffffffff1673ffffffffffffffffffffffffffffffffffffffff163373ffffffffffffffffffffffffffffffffffffffff1614610217576040517f08c379a000000000000000000000000000000000000000000000000000000000815260040161020e906106ea565b60405180910390fd5b6040518060400160405280600281526020017f7631000000000000000000000000000000000000000000000000000000000000815250905090565b6103e8341015610297576040517f08c379a000000000000000000000000000000000000000000000000000000000815260040161028e9061077c565b60405180910390fd5b6000808154809291906102a9906107cb565b9190505550565b6000600160009054906101000a900473ffffffffffffffffffffffffffffffffffffffff16905090565b600160009054906101000a900473ffffffffffffffffffffffffffffffffffffffff1681565b600033905090565b60006103126104d6565b905060008160000160089054906101000a900460ff1615905060008260000160009054906101000a900467ffffffffffffffff1690506000808267ffffffffffffffff161480156103605750825b9050600060018367ffffffffffffffff16148015610395575060003073ffffffffffffffffffffffffffffffffffffffff163b145b9050811580156103a3575080155b156103da576040517ff92ee8a900000000000000000000000000000000000000000000000000000000815260040160405180910390fd5b60018560000160006101000a81548167ffffffffffffffff021916908367ffffffffffffffff160217905550831561042a5760018560000160086101000a81548160ff0219169083151502179055505b8560008190555033600160006101000a81548173ffffffffffffffffffffffffffffffffffffffff021916908373ffffffffffffffffffffffffffffffffffffffff16021790555083156104ce5760008560000160086101000a81548160ff0219169083151502179055507fc7f505b2f371ae2175ee4913f4499e1f2633a7b5936321eed1cdaeb6115181d260016040516104c5919061084d565b60405180910390a15b505050505050565b60007ff0c57e16840df040f15088dc2f81fe391c3923bec73e23a9662efc9c229c6a00905090565b6000819050919050565b610511816104fe565b82525050565b600060208201905061052c6000830184610508565b92915050565b600081519050919050565b600082825260208201905092915050565b60005b8381101561056c578082015181840152602081019050610551565b60008484015250505050565b6000601f19601f8301169050919050565b600061059482610532565b61059e818561053d565b93506105ae81856020860161054e565b6105b781610578565b840191505092915050565b600060208201905081810360008301526105dc8184610589565b905092915050565b600073ffffffffffffffffffffffffffffffffffffffff82169050919050565b600061060f826105e4565b9050919050565b61061f81610604565b82525050565b600060208201905061063a6000830184610616565b92915050565b600080fd5b61064e816104fe565b811461065957600080fd5b50565b60008135905061066b81610645565b92915050565b60006020828403121561068757610686610640565b5b60006106958482850161065c565b91505092915050565b7f6f6e6c794f776e657243616c6c61626c65000000000000000000000000000000600082015250565b60006106d460118361053d565b91506106df8261069e565b602082019050919050565b60006020820190508181036000830152610703816106c7565b9050919050565b7f596f75206d7573742070617920313030302077656920666f72206120736f646160008201527f2100000000000000000000000000000000000000000000000000000000000000602082015250565b600061076660218361053d565b91506107718261070a565b604082019050919050565b6000602082019050818103600083015261079581610759565b9050919050565b7f4e487b7100000000000000000000000000000000000000000000000000000000600052601160045260246000fd5b60006107d6826104fe565b9150600082036107e9576107e861079c565b5b600182039050919050565b6000819050919050565b600067ffffffffffffffff82169050919050565b6000819050919050565b600061083761083261082d846107f4565b610812565b6107fe565b9050919050565b6108478161081c565b82525050565b6000602082019050610862600083018461083e565b9291505056fea2646970667358221220b4a8fdd0023c12214d546dec08258444c0936fc1b3a40e2ab7792bd4b68d919d64736f6c63430008180033",
  "linkReferences": {},
  "deployedLinkReferences": {}
}